S00B00005049522E737265632E
S11300000C942A000C943F000C943F000C943F0085
S11300100C943F000C943F000C943F000C943F0060
S11300200C943F000C943F000C943F000C943F0050
S11300300C943F000C943F000C943F000C943F0040
S11300400C943F000C943F000C943F000C943F0030
S11300500C943F0011241FBECFE5D8E0DEBFCDBF16
S113006010E0A0E6B0E0EAEBF1E002C005900D92EA
S1130070A238B107D9F70E94AC000C94DB000C94B1
S1130080000085BB8BB38E7F8BBB8BB38D7F8BBB0B
S11300908BB384608BBB89EF90E00197F1F700C0CC
S11300A000008BB38B7F8BBB89EF90E00197F1F756
S11300B000C00000089585BB8BB381608BBB8BB3FC
S11300C08D7F8BBB8BB384608BBB89EF90E00197F2
S11300D0F1F700C000008BB38B7F8BBB89EF90E0FE
S11300E00197F1F700C0000008958FEF84BB8AB335
S11300F087608ABB87E893E10197F1F700C00000AD
S113010088E30E9441008EE00E94410081E00E9449
S1130110410083EF91E00197F1F700C000000895DA
S11301200F931F93CF93DF938C01C0E0D0E009C0FD
S11301300E945B0087EA91E60197F1F700C0000096
S11301402196F801EC0FFD1F80818111F1CFDF9121
S1130150CF911F910F91089581B38E7F81BB82B39C
S1130160816082BB0E947500809B0EC081E00E946A
S1130170410083EC99E00197F1F700C0000080E6AC
S113018090E00E9490000DC081E00E94410083EC49
S113019099E00197F1F700C0000082E790E00E9427
S11301A090009FE926E881E0915020408040E1F7EB
S10D01B000C00000D9CFF894FFCF7F
S11301BA204D6F74696F6E20446574656374656459
S11301CA2000204E6F74204465746563746564204E
S10501DA00001F
S9030000FC
